:040000000128FE2FA6
:100F54004F0196019701980199019A019B0108009C
:100F6400623051018D008F01910102309300900194
:100F7400920108008731AA2787318731C627873134
:100F84008731B2278731080040019801363092003A
:100F940017307E01B800B901BA013730BB003F30C9
:100FA400BC0008008731BC278731400112101210A1
:100FB40040018C1EDE2FDF2FF32F18149C30F0001D
:100FC400D730890BE32FF00BE32F000040011810FA
:100FD4009C30F000D730890BED2FF00BED2F000083
:100FE400DA2F18109C30F000D730890BF72FF00B54
:0C0FF400F72F0000DA2F01284001D42F55
:020000040001F9
:0A000E00EC3FFF3F9F3FFF3FFF3F25
:00000001FF
